:100000000C9463000C948B000C948B000C940C03E8
:100010000C940C030C940C030C948B000C948B002C
:100020000C948B000C948B000C948B000C948B0024
:100030000C948B000C948B000C948B000C948B0014
:100040000C94C2020C948B000C948B000C948B00CB
:100050000C948B000C948B000C948B000C948B00F4
:100060000C948B000C948B000000000024002700EF
:100070002A0000000000250028002B0000000000DE
:1000800023002600290004040404040404040202DA
:100090000202020203030303030301020408102007
:1000A0004080010204081020010204081020000012
:1000B0000008000201000003040700000000000027
:1000C0000000C506320711241FBECFEFD8E0DEBF07
:1000D000CDBF11E0A0E0B1E0ECE1FFE002C005908F
:1000E0000D92A231B107D9F721E0A2E1B1E001C040
:1000F0001D92A23CB207E1F710E0C2E6D0E004C0D6
:100100002197FE010E947607C136D107C9F70E94E8
:1001100086030C9481070C940000833081F028F44E
:10012000813099F08230A1F008958730A9F08830AD
:10013000B9F08430D1F4809180008F7D03C080912C
:1001400080008F7780938000089584B58F7702C0F8
:1001500084B58F7D84BD08958091B0008F7703C0F2
:100160008091B0008F7D8093B0000895CF93DF938E
:10017000282F30E0F901E255FF4F8491F901E6564E
:10018000FF4FD491F901EA57FF4FC491CC2391F06E
:1001900081110E948D00EC2FF0E0EE0FFF1FE4585C
:1001A000FF4FA591B491EC91ED2381E090E021F413
:1001B00080E002C080E090E0DF91CF9108951F932E
:1001C000CF93DF93282F30E0F901E255FF4F849160
:1001D000F901E656FF4FD491F901EA57FF4FC49158
:1001E000CC23C1F0162F81110E948D00EC2FF0E07E
:1001F000EE0FFF1FEE58FF4FA591B4919FB7F894F3
:10020000111104C08C91D095D82302C0EC91DE2B43
:10021000DC939FBFDF91CF911F910895CF93DF9320
:1002200090E0FC01E656FF4F2491FC01EA57FF4F96
:100230008491882361F190E0880F991FFC01E859AF
:10024000FF4FC591D491FC01EE58FF4FA591B49199
:10025000611109C09FB7F894888120958223888313
:10026000EC912E230BC0623061F49FB7F894888123
:10027000322F309583238883EC912E2B2C939FBFB4
:1002800006C08FB7F894E8812E2B28838FBFDF91AB
:10029000CF9108953FB7F8948091BE019091BF012E
:1002A000A091C001B091C10126B5A89B05C02F3F08
:1002B00019F00196A11DB11D3FBFBA2FA92F982F8C
:1002C0008827820F911DA11DB11DBC01CD0142E007
:1002D000660F771F881F991F4A95D1F708958F924F
:1002E0009F92AF92BF92CF92DF92EF92FF920E94C5
:1002F0004A014B015C0183E0C82ED12CE12CF12C8A
:100300000E944A01DC01CB0188199909AA09BB099D
:10031000883E9340A105B10598F321E0C21AD108A7
:10032000E108F10888EE880E83E0981EA11CB11C3C
:10033000C114D104E104F10419F7FF90EF90DF90AC
:10034000CF90BF90AF909F908F900895CF92DF9203
:10035000EF92FF920F931F93CF93DF936C017A017B
:100360008B01C0E0D0E0CE15DF0581F0D8016D91A2
:100370008D01D601ED91FC910190F081E02DC60137
:100380000995892B11F02196EECF7E01C701DF91EF
:10039000CF911F910F91FF90EF90DF90CF90089534
:1003A00020915401309155012817390771F490912B
:1003B000520180915301981741F0E0915201F0E011
:1003C000EE5EFE4F808190E008958FEF9FEF0895DD
:1003D00008951F93CF93DF93DC015C968D919C91E0
:1003E0005D97009739F421E030E013963C932E930B
:1003F00012973BC05196ED91FC91529750962C91DB
:100400005097322F30951FB75E964C915E97742FA0
:10041000727041FD6095F8944081772311F0422B72
:1004200001C043234083EC012197F1F748E050815C
:1004300060FF02C0522B01C053235083EC0121976F
:10044000F1F76695415099F78081772319F083235E
:10045000808302C0282B20831FBF5C968D919C91C6
:100460005D970197F1F781E090E0DF91CF911F91C7
:10047000089520915401309155012817390771F4DE
:10048000809153012091520190E0805C9F4F821B2C
:10049000910960E470E00E944E07089580E090E0CA
:1004A0000895209154013091550128173907B9F466
:1004B0009091520180915301981789F0E091520177
:1004C000F0E0EE5EFE4F80812091520130E02F5F20
:1004D0003F4F2F7333272093520190E008958FEF01
:1004E0009FEF0895089580E090E00895CF93DF9303
:1004F00000D000D0CDB7DEB7282F30E0F901E85AA0
:10050000FE4F9081F901EC57FE4F208137E439838B
:100510008A832B839C8344E050E0BE016F5F7F4F52
:100520008AE991E00E94A6010F900F900F900F9022
:10053000DF91CF9108951F93CF93DF9300D000D028
:10054000CDB7DEB7182F0E94B600E12FF0E0EC57D0
:10055000FE4F908127E429831A839B838C8344E098
:1005600050E0BE016F5F7F4F8AE991E00E94A601D3
:100570000F900F900F900F90DF91CF911F910895E2
:100580000E947C071F920F920FB60F9211242F9397
:100590003F938F939F93AF93BF938091BA019091B4
:1005A000BB01A091BC01B091BD013091B90123E024
:1005B000230F2D3720F40196A11DB11D05C026E89B
:1005C000230F0296A11DB11D2093B9018093BA019A
:1005D0009093BB01A093BC01B093BD018091BE017B
:1005E0009091BF01A091C001B091C1010196A11DE0
:1005F000B11D8093BE019093BF01A093C001B09341
:10060000C101BF91AF919F918F913F912F910F9019
:100610000FBE0F901F9018951F920F920FB60F925A
:1006200011242F933F934F935F936F937F938F93F7
:100630009F93AF93BF93EF93FF93E0915401F09199
:100640005501309709F451C0968DA685B7858585EB
:1006500091FF04C09C91892329F447C09C91892370
:1006600009F043C0A389B4899C9185898095892329
:100670008C93868997890197F1F7608D718DA68596
:10068000B785558538E020E0CB010197F1F7822F3F
:1006900090E095958795282F4C91452309F0206887
:1006A000315091F7868D81FD20958091530190E026
:1006B00001968F73992730915201381749F0A09114
:1006C0005301B0E0AE5EBE4F2C938093530103C044
:1006D000868D8160868F828D938D0197F1F7A38936
:1006E000B4899C918589892B8C93FF91EF91BF915F
:1006F000AF919F918F917F916F915F914F913F91BA
:100700002F910F900FBE0F901F901895CF93DF93EE
:1007100000D000D0CDB7DEB7789484B5826084BDB8
:1007200084B5816084BD85B5826085BD85B58160F5
:1007300085BD80916E00816080936E001092810073
:10074000809181008260809381008091810081602E
:1007500080938100809180008160809380008091EF
:10076000B10084608093B1008091B000816080937B
:10077000B00080917A00846080937A0080917A0042
:10078000826080937A0080917A00816080937A0001
:1007900080917A00806880937A001092C100109254
:1007A000B5011092B4011092B3011092B2011092EF
:1007B000B1011092B0018DE991E09093B70180935F
:1007C000B6019091A601963108F058C02DEB30E0AB
:1007D0003093B1012093B0012BE931E03093B301A4
:1007E0002093B2012CE231E03093B5012093B401A3
:1007F00040916800983058F031E09E3008F430E0C5
:1008000021E0822F01C0880F3A95EAF701C084E009
:10081000842B80936800983038F09E3040F09631F9
:1008200048F42CE630E008C02DE630E005C02BE6A9
:1008300030E002C020E030E03093AE012093AD0103
:10084000983030F481E001C0880F9A95EAF70EC025
:10085000292F30E09E3018F42850310902C02E5064
:10086000310981E001C0880F2A95EAF78093AF0132
:100870008091B6019091B7010197F1F78091B40191
:100880009091B501892B49F1E0915401F091550106
:1008900021E0EA39F20709F1309739F0A389B489E8
:1008A0009C918589809589238C938091B8018E7F56
:1008B0008093B80110925301109252018AE991E09D
:1008C0009093550180935401E091AD01F091AE01F8
:1008D00090818091AF01892B80836EE6E62E61E0E6
:1008E000F62E74E8C72E71E0D72E00E010E00B3032
:1008F00011053CF0C8010E97089758F40131110515
:1009000041F061E0802F0E940E0161E0802F0E9483
:10091000DF0081E0F60181936F01F70181937F0190
:100920000F5F1F4F0631110511F740E5642E53E4A8
:10093000552E96E1492E27E4722E30E0A32E30E0AA
:10094000B32E8AE991E00E943902181619060CF0BC
:100950007CC18AE991E00E94510299278E34910569
:1009600009F4A2C094F481349105C1F08334910557
:1009700041F759824A8242E050E0BE016F5F7F4FEB
:100980008AE991E00E94A601DCCF8335910509F444
:10099000F8C08435910509F466C0D3CF84E8E82E09
:1009A00081E0F82E97EF00E010E0CC24C394C90E4C
:1009B0000B3011055CF098012E50310928303105BB
:1009C00008F047C00131110509F443C0D02E6982F7
:1009D0000A83FAE0F01738F48BEF890F883040F47F
:1009E00021E1021751F044E081E0D41202C00DC0B1
:1009F00080E0E6E0DE1202C008C080E0F2E0FC1514
:100A000020F427EF290F243008F4826023E0D21667
:100A100031F024E0290F223010F0923008F4846085
:100A20008B8343E050E0BE016F5F7F4F8AE991E026
:100A30000E94A601F7018081823040F0833021F4CA
:100A40008D2D0E94760205C0823019F48D2D0E94F2
:100A50009B020F5F1F4FFFEFEF1AFF0A9C2D9D3087
:100A600009F0A3CF6ECF0E946F018AE991E00E9446
:100A700051027C010E946F018AE991E00E945102BB
:100A8000870102591E4F019741F461E08E2D0E94AB
:100A9000DF0081E0F801808354CF60E08E2D0E945A
:100AA000DF00F80110824DCF0E946F018AE991E0CA
:100AB0000E9451027C010E946F018AE991E00E942C
:100AC00051028C016C01DD2461E08E2D0E940E012B
:100AD00047019924C114D10409F448C0FFEFCF168F
:100AE000D10409F445C0F401E255FF4FE491E3302D
:100AF000F9F048F4E130B9F0E230A1F584B5806254
:100B000084BD08BD39C0E730E9F0E83019F1E430C0
:100B100049F580918000806280938000D0928B00A4
:100B2000C0928A0029C084B5806884BD07BD24C0F6
:100B300080918000806880938000D0928900C0926C
:100B400088001AC08091B00080688093B000009344
:100B5000B30012C08091B00080628093B000009317
:100B6000B4000AC020E8C216D10414F460E001C049
:100B700061E08E2D0E94DF00F401E85AFE4F0083F1
:100B8000E0CE0E946F018AE991E00E9451028C013F
:100B90000E946F018AE991E00E945102D82E7801EB
:100BA000FF24F701EC57FE4F8081D81609F4C9CE17
:100BB000802FD08241E0D4120CC061E00E940E016F
:100BC00061E0802F0E94DF00F701E259FE4FD082E2
:100BD00016C0DD2081F092E0D91215C0802F8D7FE4
:100BE000843049F088EF800F833028F08EEE800F3C
:100BF000843008F0A6CE60E0802F0E940E01802F86
:100C00000E949B029ECEE3E0DE129BCE033049F0B1
:100C10008BEF800F823028F087EF800F823008F052
:100C200090CE61E0802F0E940E0161E0802F0E9433
:100C30000E0160E0802F0E94DF00F701E85AFE4FAE
:100C40001082802F0E9476027CCE109156011B30BC
:100C500078F082EF810F883010F4113149F41F5F72
:100C600010935601163108F44CC01092560149C039
:100C7000E12FF0E0EC57FE4F80818230D1F50E94E9
:100C80006F01123110F0125107C0183028F41630DD
:100C900009F479C016E003C01E3008F01E5017702A
:100CA000106410937C0080917A00806480937A00B5
:100CB00080917A0086FDFCCF309178008091790098
:100CC00020915601F0E18F9FC0011124E22FF0E046
:100CD000EC57FE4F9081892B79822A838B833C834A
:100CE00044E050E0BE016F5F7F4F8AE991E00E94CF
:100CF000A601809156018F5F80935601863108F0DE
:100D0000B4CF109157011B3070F082EF810F883003
:100D100010F4113141F41F5F10935701163160F147
:100D20001092570129C0E12EF12CF701EC57FE4F2C
:100D3000808181111AC0812F0E94B600F701E2590B
:100D4000FE4F9081891789F0808319821A821B8255
:100D50001C8279821A838C8344E050E0BE016F5F6D
:100D60007F4F8AE991E00E94A601809157018F5F31
:100D7000809357018631A0F6A114B10409F4E1CDA6
:100D80000E940000D6CD17E08ACF10929D011092EC
:100D90009C0188EE93E0A0E0B0E080939E019093E8
:100DA0009F01A093A001B093A10184E091E09093F2
:100DB0009B0180939A011092B1011092B0011092A0
:100DC000B3011092B2011092B5011092B4011092C9
:100DD000B7011092B6016091B8016E7F6D7F60938C
:100DE000B8016695617081E068278CE00E94DF00A1
:100DF00061E08CE00E940E01E6EAF0E0E491E0930D
:100E0000AA01E2E9F0E0E491F0E0EE0FFF1FEE58F6
:100E1000FF4F859194919093AC018093AB0160E07A
:100E20008BE00E940E018091B80181FD04C061E059
:100E30008BE00E94DF008BE08093A601E5EAF0E002
:100E4000E491E093A701E1E9F0E0E491F0E0EE0F36
:100E5000FF1FE458FF4F859194919093A9018093CF
:100E6000A801089584E091E090939B0180939A01FA
:100E700080915401909155018A59914071F4E0910B
:100E8000AD01F091AE0190818091AF0180958923F1
:100E900080831092550110925401089597FB072EFC
:100EA00016F4009407D077FD09D00E94620707FC72
:100EB00005D03EF4909581959F4F0895709561956A
:100EC0007F4F0895AA1BBB1B51E107C0AA1FBB1F80
:100ED000A617B70710F0A61BB70B881F991F5A95C6
:100EE000A9F780959095BC01CD010895EE0FFF1FE5
:100EF0000590F491E02D099481E090E0F8940C9431
:100F0000810710E0C2E6D0E004C0FE010E9476072F
:0C0F10002196C336D107C9F7F894FFCF33
:100F1C0000000000E901A6017302E8013902510248
:020F2C00D001F2
:107E0000112484B714BE81FFF0D085E080938100F7
:107E100082E08093C00088E18093C10086E0809377
:107E2000C20080E18093C4008EE0C9D0259A86E02C
:107E300020E33CEF91E0309385002093840096BBD3
:107E4000B09BFECF1D9AA8958150A9F7CC24DD24C4
:107E500088248394B5E0AB2EA1E19A2EF3E0BF2EE7
:107E6000A2D0813461F49FD0082FAFD0023811F036
:107E7000013811F484E001C083E08DD089C08234E0
:107E800011F484E103C0853419F485E0A6D080C0E4
:107E9000853579F488D0E82EFF2485D0082F10E0AE
:107EA000102F00270E291F29000F111F8ED06801E7
:107EB0006FC0863521F484E090D080E0DECF843638
:107EC00009F040C070D06FD0082F6DD080E0C81688
:107ED00080E7D80618F4F601B7BEE895C0E0D1E017
:107EE00062D089930C17E1F7F0E0CF16F0E7DF06D8
:107EF00018F0F601B7BEE89568D007B600FCFDCFD4
:107F0000A601A0E0B1E02C9130E011968C91119780
:107F100090E0982F8827822B932B1296FA010C0160
:107F200087BEE89511244E5F5F4FF1E0A038BF0790
:107F300051F7F601A7BEE89507B600FCFDCF97BE46
:107F4000E89526C08437B1F42ED02DD0F82E2BD052
:107F50003CD0F601EF2C8F010F5F1F4F84911BD097
:107F6000EA94F801C1F70894C11CD11CFA94CF0C13
:107F7000D11C0EC0853739F428D08EE10CD085E9AC
:107F80000AD08FE07ACF813511F488E018D01DD067
:107F900080E101D065CF982F8091C00085FFFCCF94
:107FA0009093C60008958091C00087FFFCCF809118
:107FB000C00084FD01C0A8958091C6000895E0E648
:107FC000F0E098E1908380830895EDDF803219F02E
:107FD00088E0F5DFFFCF84E1DECF1F93182FE3DFCA
:107FE0001150E9F7F2DF1F91089580E0E8DFEE27F6
:047FF000FF270994CA
:027FFE00040479
:0400000300007E007B
:00000001FF
